:020000040000FA
:0800000000008A110A12192800
:08000800F0000308F1000A08F2
:10001000F200013083120313B400831203130B1197
:0E00200072088A0071088300F00E700E09004D
:02002E0000349C
:0200300000349A
:0E00320000008A110A12D32383120313013037
:10004000F8008A110A1251230F30F8008A110A129F
:10005000512383120313A50125088A110A12FF22D6
:1000600083120313F800F8088A110A1203194728AB
:100070008A110A128923831203130F3025028A1171
:100080000A120319CA23A50A8A110A122C288312FC
:1000900003138D30F8008A110A12512383120313BF
:1000A000F3018A110A12CF2483120313A6018312CB
:1000B0000313A70183120313A80183120313AA01D8
:1000C00083120313A90183120313AB0183160313D5
:1000D000071483160313873081008312031310144F
:1000E000901410158316031307308800831203132E
:1000F0008A110A12D5218A110A12DA218A110A12EA
:10010000DF2183120313A101283083120313B300EC
:10011000831203138101831203138E018F01831253
:100120000313B401831203138B178B16831203136B
:1001300088018A110A12081CCB208A110A12881C15
:10014000C2208A110A12081DBA20831203138A11D1
:100150000A122118D428831203138A110A12341C9C
:100160009628831203138A110A12B30B8F288A115F
:100170000A123E2A83120313A001831203130130D3
:10018000A1000800013083120313A000831203139F
:100190000130A1000800023083120313A000831273
:1001A00003130130A1000800831603137830880080
:1001B00083120313A201831203138A110A12081F68
:1001C000F6208A110A12881E10218A110A12081EAE
:1001D0002B218A110A12881D4621831203138A11CA
:1001E0000A12221872288A110A12DB288A110A12AE
:1001F0002C238312031320088A110A12E922831286
:100200000313F80083120313A6008A110A12E421D3
:100210008A110A12C121831203130130A2000800BF
:100220008A110A122C2383120313033020078A1128
:100230000A12E92283120313F80083120313A600A3
:100240008A110A12E4218A110A12C62183120313A9
:100250000130A20008008A110A122C238312031312
:10026000063020078A110A12E92283120313F800CC
:1002700083120313A6008A110A12E4218A110A12BA
:10028000CB21831203130130A20008008A110A1245
:100290002C2383120313A30183120313A4018312DB
:1002A0000313093020078A110A12E922831203136B
:1002B000A4008A110A12A4189C218A110A12241877
:1002C0006F21831203138A110A12231CB6218A118B
:1002D0000A12D021831203130130A20008008312F6
:1002E00003138D30F8008A110A125123831203136D
:1002F0002B08AB0083120313AA0083120313F80028
:100300007816F8168A110A12892383120313290812
:10031000A90083120313A80083120313F8007816B0
:10032000F8168A110A1289238D30F8008A110A12F0
:1003300051230130A30008008D30F8008A110A1201
:1003400051238A110A1215228A110A12CF2483120C
:100350000313280883120313A900831203132A0826
:1003600083120313AB000130A30008003030831266
:100370000313A60183120313F8008A110A12E42161
:10038000080083120313081FC129080083120313F6
:10039000881EC629080083120313081ECB290800F3
:1003A00083120313881DD029080083120313081C2D
:1003B000D529080083120313881CDA290800831248
:1003C0000313081DDF290800831203138A110A1280
:1003D000271CF1218A110A122718FD290130A700D4
:1003E00008008A110A128923831203132612A61207
:1003F000260883120313AA0008008A110A1289230F
:10040000831203138D30F8008A110A1251238312CC
:1004100003132612A612260883120313A8008312C0
:100420000313A7018A110A12F0298A110A1229223C
:10043000831203132D0883120313AE0083120313D8
:100440002808A800831203132E0783120313F30056
:10045000080083120313AD010A3083120313AC00AA
:10046000831203132A08AA0083120313AD07831211
:1004700003138A110A12AC0B342A080083120313E7
:100480000E0883120313B200831203130F088312A2
:100490000313B100F501F601F701F4018312031310
:1004A00005303218F400B20C831203138A110A12B9
:1004B000311869228A110A126D228A110A128322C6
:1004C0008A110A1299228A110A12B3228A110A1277
:1004D000722883120313B2170800643083120313C7
:1004E000031483120313B202831203130318F50AD1
:1004F0008A110A1203186D2A0319F50A8A110A12C1
:10050000031DAF2208000A30831203130314831261
:100510000313B202831203130318F60A8A110A1294
:100520000318832A0319F60A8A110A12031DAF223F
:100530000800013083120313031483120313B20261
:10054000831203130318F70A8A110A120318992A4F
:100550000319F70A8A110A12031DAF220800831239
:100560000313B2070800C43083120313F8008A1182
:100570000A1251237508F8003030F8078A110A1260
:1005800089237608F8003030F8078A110A12892387
:100590007708F8003030F8078A110A1289232E30C4
:1005A000F8008A110A1289237408F8003030F8071D
:1005B0008A110A1289238A110A12DF2208008E305A
:1005C000271C8D3083120313F8008A110A1251235D
:1005D000080083120313B80002308A00F330380792
:1005E00003188A0A820031343234333434343534D7
:1005F0003634373438343934313430343234831289
:100600000313B80003308A000930380703188A0A38
:100610008200503465347234633465346E3474341B
:100620002034643472346934763465343034303490
:100630002534523450344D343D3430343034303439
:100640002E3430340034FF3083120313AF00000027
:100650000000AF0B272B0800FF3083120313B000FC
:100660008A110A122323831203138A110A12B00B70
:10067000302B08003A2BC83083120313B50000005A
:100680000000B50B3F2B0800053083120313B600A2
:1006900000008A110A123B2383120313B60B482B66
:1006A00008000000831203130511831203131308BB
:1006B0004030930083160313141C5C2B8312031326
:1006C00013081230930083160313141C652B831236
:1006D000031313084030930083160313141C6E2B6E
:1006E0008312031313087808930083160313141C52
:1006F000772B831203131308003093008316031320
:10070000141C802B8A110A1244238312031305152B
:10071000080000008312031305118312031313084A
:100720004030930083160313141C942B831203137D
:1007300013081230930083160313141C9D2B83128D
:1007400003131308C030930083160313141CA62B45
:100750008312031313087808930083160313141CE1
:10076000AF2B8312031313088030930083160313F7
:10077000141CB82B8A110A12442383120313051583
:1007800008000000831203138030F8008A110A1257
:1007900051230800000083120313C030F8008A11AF
:1007A0000A125123080000008316031307309F002C
:1007B000831203130B0883120313B700831203136E
:1007C0008B018316031305118612871107128712F6
:1007D0008316031394171417831203139401203004
:1007E0009400831203130515861683160313000065
:1007F000831203130511130840309300831603136B
:10080000141C002C8312031313080030930083166A
:100810000313141C092C83120313130800309300D4
:1008200083160313141C122C8312031313080030B5
:10083000930083160313141C1B2C83120313130839
:100840000030930083160313141C242C831203130B
:1008500013080030930083160313141C2D2C8312ED
:10086000031313080030930083160313141C362C53
:100870008312031313080030930083160313141C10
:100880003F2C8312031305153B230000831203132F
:10089000051183160313141C4B2C83120313130826
:1008A0004030930083160313141C542C831203133B
:1008B00013080C30930083160313141C5D2C831251
:1008C000031313080030930083160313141C662CC3
:1008D0008312031313080030930083160313141CB0
:1008E0006F2C8312031305153B230000831203139F
:1008F000051183160313141C7B2C83120313130896
:100900004030930083160313141C842C83120313AA
:1009100013080A30930083160313141C8D2C8312C2
:10092000031313083830930083160313141C962CFA
:100930008312031305153B233B233B233B238312E5
:1009400003133030F80051233B233B233B233B234D
:100950003B23831203133030F80051233B238312CF
:1009600003133030F8005123831203133830F8009A
:100970005123831203130830F80051238312031309
:100980000130F8005123831203130630F80051237D
:0E099000831203133708831203138B00080031
:02099E008312C2
:1009A0000313053092000C309700831603130711D0
:1009B00063309200831203137308831203139500AC
:0209C00008002D
:02400E00323747
:00000001FF
